:020000040800F2
:100000000000012081040008D1040008D104000888
:10001000D1040008D1040008D10400080000000049
:10002000000000000000000000000000D1040008F3
:10003000D104000800000000D1040008C10200083B
:10004000D1040008D1040008D1040008D10400083C
:10005000D1040008D1040008D1040008D10400082C
:10006000D1040008D1040008D1040008D10400081C
:10007000D1040008D1040008D1040008D10400080C
:10008000D1040008D1040008D104000800000000D9
:10009000000000000000000000000000D104000883
:1000A000D1040008D1040008D1040008D1040008DC
:1000B000D1040008D1040008D1040008D1040008CC
:1000C000D1040008D1040008D1040008D1040008BC
:1000D000D1040008D1040008D10400080000000089
:1000E000D1040008D1040008D10400080000000079
:1000F000000000000000000000000000D104000823
:1001000000000000D1040008D1040008D104000858
:1001100000000000000000000000000000000000DF
:10012000D1040008D1040008D1040008D10400085B
:10013000D1040008000000000000000000000000E2
:10014000000000000000000000000000D1040008D2
:10015000D1040008D1040008D1040008D10400082B
:10016000D1040008D10400080000000000000000D5
:10017000000000000000000000000000000000007F
:1001800000000000D1040008000000000000000092
:04019000D10400088E
:1001940010B5054C237833B9044B13B10448AFF3BD
:1001A40000800123237010BD040000200000000023
:1001B400D404000808B5034B1BB103490348AFF34B
:1001C400008008BD0000000008000020D4040008DE
:1001D40070B50D4D0D4C641BA4100026A64209D128
:1001E4000B4D0C4C00F074F9641BA4100026A642BD
:1001F40005D170BD55F8043B98470136EEE755F834
:10020400043B98470136F2E7EC040008EC040008CC
:10021400EC040008F004000880B400AF00BFBD4641
:1002240080BC704780B483B000AF03463960FB7173
:1002340097F90730002B0ADB3B68DAB20C4997F9CF
:1002440007301201D2B20B4483F800230AE03B6862
:10025400DAB20849FB7903F00F03043B1201D2B26E
:100264000B441A7600BF0C37BD4680BC704700BFF4
:1002740000E100E000ED00E080B582B000AF7860FE
:100284007B68013BB3F1807F01D301230FE00A4A6D
:100294007B68013B53600F214FF0FF30FFF7C2FF33
:1002A400054B00229A60044B07221A60002318466B
:1002B4000837BD4680BD00BF10E000E080B400AF49
:1002C400044B1B68013B034A136000BFBD4680BC5E
:1002D400704700BF2000002080B500AF2D4B1B6885
:1002E4002C4A43F0070313602B4B1B682A4A43F440
:1002F4008033136000BF284B1B6803F40033B3F54D
:10030400003FF8D1244B5B68244A1A402249244B0D
:1003140013434B60204B5B681F4A23F44033536004
:100324001D4B1B681C4A43F08073136000BF1A4BBB
:100334001B6803F00073B3F1007FF8D1164B9B6880
:10034400154A23F0F0039360134B9B6823F00303D7
:10035400114A43F00203936000BF0F4B9B6803F004
:100364000C03082BF9D10C4B9B6823F4E0530A4A85
:1003740043F480539360084B9B68074A23F460431B
:1003840093600848FFF778FF074B084A1A6000BFDC
:1003940080BD00BF003C0240003802400080BFFF27
:1003A400192A4000204801000000002000BD01057A
:1003B40080B400AF164B1B6B154A43F00403136360
:1003C400144B1B68134A23F040631360114B1B68E2
:1003D400104A43F0806313600E4B5B680D4A23F4AC
:1003E400005353600B4B9B680A4A23F040639360AD
:1003F400084BDB68074A23F04063D360054B9B69D5
:10040400044A43F00053936100BFBD4680BC70476B
:10041400003802400008024080B483B000AF786026
:10042400064A7B68136000BF044B1B68002BFBD19A
:1004340000BF00BF0C37BD4680BC704720000020C1
:1004440080B500AFFFF748FFFFF7B2FF0A4B9B6987
:10045400094A43F4005393614FF47A70FFF7DCFFC9
:10046400054B9B69044A43F0005393614FF47A703F
:10047400FFF7D2FFEAE700BF00080240DFF834D0FC
:10048400FFF7CAFE0C480D490D4A002302E0D45878
:10049400C4500433C4188C42F9D30A4A0A4C0023CA
:1004A40001E013600432A242FBD3FFF791FEFFF791
:1004B400C7FF704700000120000000200400002056
:1004C400F40400080400002024000020FEE70000DB
:1004D400F8B500BFF8BC08BC9E467047F8B500BF2D
:0804E400F8BC08BC9E467047FD
:0404EC00B90100084A
:0404F000950100086A
:0404F4000024F400EC
:04000005080004816A
:00000001FF
